:020000040800F2
:10000000183400209D0100083923000895210008BC
:1000100035230008210A0008E52800080000000038
:10002000000000000000000000000000AF01000818
:10003000250A0008000000009D0200085302000885
:10004000B7010008B7010008B7010008B7010008B0
:10005000B7010008B7010008B7010008B7010008A0
:10006000B7010008B7010008B7010008B701000890
:10007000B7010008B7010008B7010008B701000880
:10008000B7010008B7010008B7010008B701000870
:10009000B7010008B7010008B7010008B701000860
:1000A000B701000879240008B7010008B70100086B
:1000B000B7010008B7010008B7010008B701000840
:1000C000B7010008B7010008B7010008B701000830
:1000D000B7010008B7010008B7010008B701000820
:1000E000B7010008B7010008B7010008B701000810
:1000F000B7010008B7010008B7010008B701000800
:10010000B7010008B7010008B7010008B7010008EF
:10011000B7010008B7010008B7010008B7010008DF
:10012000B7010008B7010008B7010008B7010008CF
:10013000B7010008B7010008B7010008B7010008BF
:10014000B7010008B7010008B7010008B7010008AF
:10015000B7010008B7010008B7010008B70100089F
:10016000B7010008B7010008B7010008B70100088F
:10017000B7010008B7010008B7010008000000003F
:10018000B7010008B7010008DFF80CD000F08CFBC5
:1001900000480047FD440008183400200648804706
:1001A00006480047FEE7FEE7FEE7FEE7FEE7FEE75C
:1001B000FEE7FEE7FEE7FEE7652400088901000888
:1001C000340000201834002000000008F000002057
:1001D00000000008001000E07FA219000000FF40AE
:1001E00072B65FF824005FF8241001F10401016089
:1001F0004FF0E0205FF83010C0F8081D5FF83400C1
:100200005FF83410096801605FF83800016841F058
:10021000010101604FF0E0205FF8441041614FF0B0
:10022000070101614FF00001C0F8181D4FF07F4138
:10023000C0F81C1D5FF85C10C0F8201D7047FFF768
:10024000FEBFFFF7FEBFFFF7FEBF01B5BDE80140EF
:10025000704701B500F094F8BDE801407047FFF722
:10026000FEBFFFF7FEBF000000000000000000001E
:100270004FF000002A4A1060EFF3148020F00400D1
:1002800080F3148862B64FF080504FF0E021C1F83F
:10029000040DBFF34F8FBFF36F8FFEE72148224A53
:1002A0004FF00003016891B10360EFF3098C2CE972
:1002B000F00F1EF0100F01D12CED108A1B4C4CF8E2
:1002C00004ED2568C1F808C00DB18D61236072B6D8
:1002D0001168B1B1016062B64F68154C8D6907F1C4
:1002E00001074F602560D1F808C05CF804EB1EF0F0
:1002F000100F01D1BCEC108ABCE8F00F8CF3098818
:10030000704772B61168016009B962B6F9E74FF03B
:1003100000674FF0E028C8F8047D62B6DCE770475C
:1003200068000020580000205C00002054060020D7
:100330005406002000000000000000000000000043
:10034000026922F00702A2F144026FF00203136077
:100350004FF0000353609360D36013615361936166
:10036000D361136253629362D362136353634FF09A
:10037000FF339363D1634FF08073136482607047DF
:100380002249086800F101000860214B1A683AB15F
:10039000A2F101021A601AB91E4B4FF00100186059
:1003A0001D490868026822B11C4B4FF001021A6017
:1003B00008E000F104001A4B1A68904201D1194B71
:1003C00018680860184B1A6812B918490868D0B143
:1003D0002DE901401649086808B103F0A7FB154B49
:1003E0001A6872B103F016FB1348016849B9134843
:1003F0000168134A136813484FF08052994200D0A5
:100400000260BDE80140BFF34F8F7047A00100209C
:100410005406002004010020FC0000200001002000
:100420008C01002090010020040100200001002028
:100430000001002004010020680000205800002076
:100440005C00002004ED00E02DE9F05F054600208F
:1004500092469B4688460646814640241BE0284635
:1004600041464746224600F057F853465A46C01ABE
:10047000914110D311461846224600F03EF82D1A3D
:1004800067EB01084F4622460120002100F035F8B5
:1004900017EB00094E41201EA4F10104DFDC4846A1
:1004A00031462A464346BDE8F09FD2B201E000F84B
:1004B000012B491EFBD270470022F6E710B5134608
:1004C0000A4604461946FFF7F0FF204610BD30B536
:1004D0000B46014600202022012409E021FA02F502
:1004E0009D4205D303FA02F5491B04FA02F528449C
:1004F000151EA2F10102F1DC30BD202A04DB203AF6
:1005000000FA02F1002070479140C2F1200320FA66
:1005100003F3194390407047202A04DB203A21FA64
:1005200002F00021704721FA02F3D040C2F120020C
:1005300091400843194670472DE9FE4F804681EAF5
:100540000300C00F0C46009021F0004123F000454D
:10055000B8EB0200A94105D24046214690461C4610
:100560000B46024623F00040104347D0270DC7F347
:100570000A00C3F30A510290401A019040286BDA36
:10058000C3F3130040F4801B0098924620B100236F
:10059000D2EB030A63EB0B0B01985946C0F1400202
:1005A0005046FFF7AAFF06460D4650465946019AA7
:1005B00000F08CF910EB08006141002487EA115229
:1005C00084EAE7731A4340D0009A62B3019A012A81
:1005D0004FEA075215DC001B61EB02014FF00042AD
:1005E00002EA0752CDE90042001C41F58011324673
:1005F0002B4600F08CF903B0BDE8F08F4046214651
:10060000F9E7001B61EB0201001C41F580130018A3
:100610005B412018A2F5001747EB030140EAD570B3
:10062000B6196D4111E06D084FEA360645EAC0750E
:100630004FEA0752001B61EB0201001C41F58011DB
:1006400049084FEA30000019514132462B4603B0A9
:10065000BDE8F04F00F04CB90098012240000023A3
:10066000D0EB020263EBE073009821464FEAE0749E
:10067000B8EB000061EB0401E9E783F000435BE7BE
:1006800081F0004158E72DE9FE4F81EA030404F0B0
:10069000004421F0004100944FF0000B23F0004390
:1006A00050EA01045ED052EA03045BD0C3F30A545B
:1006B000C1F30A552C44A4F2F3340194A0FB025474
:1006C000C1F3130141F48011C3F3130343F4801306
:1006D00001FB024400FB034E840A970A44EA81545A
:1006E00047EA8357A4FB076802958D0A05FB078537
:1006F0004FEA932C04FB0C542705029D4FEA065841
:1007000047EA1637B5EB08056EEB070C870E920E1D
:1007100047EA811742EA8312A7FB0201B6EB0B01FD
:1007200064EB00042B0D43EA0C335E1844EB1C50C1
:10073000DA465146E7FB0201C5F313044FEA0B33D7
:1007400043EA14534FEA0432019C43EA0603A4F13E
:100750000C040294009CCDE900B400F0D8F803B07A
:10076000BDE8F08F00200146F9E72DE9F04D81EA60
:10077000030404F0004B21F0004514464FF0000A3A
:1007800023F0004150EA050220D054EA01021DD0B6
:10079000C5F30A570246C5F31303C1F31300C1F3AF
:1007A0000A5640F4801543F48013A7EB0608101B8B
:1007B000D64608F2FD3873EB050002D308F10108B4
:1007C00001E092185B41B8F1000F03DA0020014606
:1007D000BDE8F08D00204FF48011064684460EE0FF
:1007E000171B73EB050705D3121B63EB05030643C9
:1007F0004CEA010C49084FEA300092185B4150EA7C
:100800000107EDD152EA030012D082EA040083EA24
:100810000501084305D0101BAB4106D2012200237D
:1008200006E000224FF0004302E06FF00102531097
:100830001AEB06004CEB085110EB0A0041EB0B01E0
:10084000BDE8F04D00F054B8C1F30A52C1F31301F2
:1008500040F2FF3341F480119A4202DA002001464F
:10086000704740F233439A42A2F2334202DC5242D2
:10087000FFF752BEFFF741BE30B5041E71F1000410
:1008800004DB4FF00044404264EB0101141E73F19D
:10089000000405DB1C464FF00043524263EB0403A7
:1008A000994208BF904230BD064C074D06E0E06813
:1008B00040F0010394E8070098471034AC42F6D3A7
:1008C000FFF766FCC84E0008E84E0008202A06DB49
:1008D000CB17203A41FA02F043EAE07306E041FA0E
:1008E00002F3D040C2F120029140084319467047FC
:1008F00010B5141E73F1000408DA401C41F1000128
:1009000092185B411A4301D120F0010010BD2DE97E
:10091000F04D92469B4611B1B1FA81F202E0B0FA75
:1009200080F220329046FFF7E8FD04460F4640EA89
:100930000A0041EA0B0153465A46084313D01146B8
:1009400053EA010019D0C8F140025046FFF7E4FD18
:1009500005460E46504659464246FFF7CEFD08432F
:1009600005D0012004E020463946BDE8F08D002086
:10097000054346EAE0762C4337430A986305E40AC8
:10098000A0EB08000022FD0A44EA47540A3002D5D1
:1009900000200146E9E7010510196941DDE9084534
:1009A00000196941BDE8F04DA2E7000080B58CB0A8
:1009B0000A90002309930A980890089807A94FF411
:1009C000807203F00FFB18B1FFE702200B9024E0C8
:1009D00007986946B0228A6101224A6100230B61AF
:1009E0000522CA608A604FF480724A60086042F64D
:1009F0006470C2F2000044F69561C0F6000142F254
:100A00000D32C0F6000203F035FC18B1FFE70E20EE
:100A10000B9002E009980B90FFE70B980CB080BD9B
:100A2000FFE7FEE77047000072B6FFE7FEE7000051
:100A30008EB00D900C9100200A90099008900B90B8
:100A4000FFE70B980F2800F2CC81FFE70B990120FC
:100A500088400A900C9800680A9908400990099803
:100A60000A99884240F0B881FFE70C98406800F08E
:100A70000300012807D0FFE70C98406800F003004E
:100A800002282FD1FFE70D98806808900B9841004D
:100A9000032000FA01F10898884308900C98C06878
:100AA0000B99490000FA01F108980843089008984A
:100AB0000D9988600D98406808900B99012000FA04
:100AC00001F10898884308900C984068C0F3001022
:100AD0000B9900FA01F108980843089008980D99BD
:100AE0004860FFE70C98406800F00300032818D026
:100AF000FFE70D98C06808900B984100032000FAAA
:100B000001F10898884308900C9880680B99490077
:100B100000FA01F108980843089008980D99C860F8
:100B2000FFE70C98406800F00300022826D1FFE799
:100B30000D980B996FF0030202EA51010844006A14
:100B400008900B9800F0070081000F2000FA01F1D7
:100B50000898884308900C9800690B9901F00701E8
:100B6000890000FA01F108980843089008980D9947
:100B70000B9B02EA530211440862FFE70D980068DC
:100B800008900B984100032000FA01F1089888436F
:100B900008900C98406800F003000B99490000FA97
:100BA00001F108980843089008980D9908600C987E
:100BB00080798007002800F00E81FFE7FFE7002022
:100BC000079043F64400C4F20200016841F48041FA
:100BD0000160006800F4804007900798FFE70B98D9
:100BE00020F0030043F60801C4F2010140580890C8
:100BF0000B9800F0030081000F2000FA01F1089823
:100C0000884308900D980021C4F20201884203D164
:100C1000FFE7002006905EE00D9840F20041C4F22C
:100C20000201884203D1FFE70120059050E00D98B2
:100C300040F60001C4F20201884203D1FFE702201E
:100C4000049042E00D9840F60041C4F2020188424F
:100C500003D1FFE70320039034E00D9841F2000137
:100C6000C4F20201884203D1FFE70420029026E08B
:100C70000D9841F20041C4F20201884203D1FFE71E
:100C80000520019018E00D9841F60001C4F2020120
:100C9000884203D1FFE7062000900AE00D9941F653
:100CA0000042C4F202020820914208BF07200090CF
:100CB000FFE700980190FFE701980290FFE7029894
:100CC0000390FFE703980490FFE704980590FFE77F
:100CD00005980690FFE70698C0B20B9901F0030152
:100CE000890000FA01F108980843089008980B99C8
:100CF00021F0030143F60802C4F20102885043F6D2
:100D00000840C4F2010000680890099908988843D7
:100D100008900C988079C006002805D5FFE709994E
:100D2000089808430890FFE7089843F60841C4F282
:100D30000101086043F60C40C4F20100006808900D
:100D400009990898884308900C98807980060028B3
:100D500005D5FFE70999089808430890FFE7089828
:100D600043F60C41C4F20101086043F60440C4F2AA
:100D700001000068089009990898884308900C9829
:100D800080798007002805D5FFE70999089808436E
:100D90000890FFE7089843F60441C4F20101086097
:100DA00043F60040C4F201000068089009990898D1
:100DB000884308900C988079C00728B1FFE709990B
:100DC000089808430890FFE7089843F60041C4F2EA
:100DD00001010860FFE7FFE7FFE70B9801300B9088
:100DE0002FE60EB07047000082B00190ADF80210FF
:100DF0008DF801209DF8010028B1FFE7BDF8020041
:100E00000199886105E0BDF802000004019988613C
:100E1000FFE702B07047000043F21400C2F2000086
:100E20000068704740F20C00C2F20000027843F202
:100E30001401C2F200010868104408607047000005
:100E400080B543F60041C4F20201086840F4007026
:100E50000860086840F480600860086840F48070AA
:100E60000860032000F0C0F80F2000F005F800F043
:100E700071F8002080BD000080B58CB00B90002080
:100E800005900490FFE70020019043F64400C4F26F
:100E90000200016841F001010160006800F00100FA
:100EA00001900198FFE706A803A900F0D7F900F028
:100EB00017FA4000059005984DF68361C4F21B3186
:100EC000A0FB01014FF0FF3000EB9140049040F295
:100ED0005860C2F200000021C4F20101016040F23A
:100EE000E731C16004994160002101618160816145
:100EF00000F0E4FD8DF80B009DF80B0028BBFFE728
:100F000040F25860C2F2000000F02AFE8DF80B009B
:100F10009DF80B00C0B9FFE7192000F041F80B98CD
:100F20000F280CD8FFE70B991920002200F042F897
:100F30000B9840F21001C2F20001086003E00120AA
:100F40008DF80B00FFE7FFE7FFE79DF80B000CB003
:100F500080BD000082B0FFE70020019043F644000E
:100F6000C4F20200016841F480410160006800F4AD
:100F7000804001900198FFE7FFE70020009043F6D2
:100F80004000C4F20200016841F080510160006835
:100F900000F0805000900098FFE702B0704700001A
:100FA00080B582B08DF807009DF9070001F09CFC28
:100FB00002B080BD80B586B08DF817000491039211
:100FC0000020029001F0A8FC02909DF9170001900A
:100FD00002980499039A01F0B1F90146019801F0D1
:100FE000A3FC06B080BD000080B582B001900198DE
:100FF00001F0BCFC02B080BD80B584B002900191CC
:10100000029820B9FFE701208DF80F0021E1019837
:1010100043F60041C4F20201096801F00701884269
:1010200012D9FFE7019943F60040C4F202000170B3
:10103000006800F007000199884204D0FFE7012012
:101040008DF80F0005E1FFE702980078800700287F
:101050002AD5FFE7029800784007002809D5FFE766
:1010600043F60801C4F20201086840F4E050086049
:10107000FFE7029800780007002809D5FFE743F64C
:101080000801C4F20201086840F460400860FFE70C
:1010900043F60801C4F20201086820F0F000029A49
:1010A000926810430860FFE702980078C0070028A4
:1010B0006ED0FFE702984068012811D1FFE743F6A0
:1010C0000000C4F20200006800F400310020B0EB20
:1010D000514F04D1FFE701208DF80F00B9E02CE05B
:1010E00002984068022805D0FFE70298406803286C
:1010F00011D1FFE743F60000C4F20200006800F0DF
:1011000000710020B0EB516F04D1FFE701208DF892
:101110000F009EE010E043F60000C4F202000068F9
:1011200000F002010020B0EB510F04D1FFE70120D5
:101130008DF80F008DE0FFE7FFE743F60801C4F2EA
:101140000201086820F00300029A52681043086008
:10115000FFF762FE0090FFE743F60800C4F20200CA
:10116000006800F00C0002994968B0EB810F0ED0C6
:10117000FFE7FFF751FE0099401A41F2893188429A
:1011800004D3FFE703208DF80F0062E0E4E7FFE7F8
:10119000019843F60041C4F20201096801F0070119
:1011A000884212D2FFE7019943F60040C4F20200E0
:1011B0000170006800F007000199884204D0FFE741
:1011C00001208DF80F0044E0FFE702980078400707
:1011D00000280CD5FFE743F60801C4F202010868B5
:1011E00020F4E050029AD26810430860FFE70298AA
:1011F0000078000700280DD5FFE743F60801C4F288
:101200000201086820F46040029A126940EAC200B4
:101210000860FFE700F076F843F60801C4F2020127
:101220000968C9B20A0944F66261C0F60001895C26
:10123000C84040F20401C2F20001086040F2100010
:10124000C2F200000068FFF717FE00208DF80F00C3
:10125000FFE79DF80F0004B080BD000082B0019050
:10126000009101990F20086043F60800C4F20200C3
:10127000016801F00301019A5160016801F0F00179
:10128000019A9160016801F4E051019AD16000680F
:1012900000F46040C0080199086143F60040C4F2C0
:1012A0000200006800F007000099086002B0704773
:1012B00040F20400C2F200000068704780B5FFF7FA
:1012C000F7FF43F60801C4F202010968C1F3822264
:1012D00044F67261C0F60001895CC84080BD000020
:1012E00080B5FFF7E5FF43F60801C4F20201096883
:1012F00089B24A0B44F67261C0F60001895CC840AD
:1013000080BD000080B586B0002005900490039059
:10131000029043F60800C4F20200006800F00C00DE
:101320000146019140B1FFE7019804280AD0FFE788
:10133000019808280CD04FE042F20040C0F2F400BF
:1013400002904FE041F20020C0F27A00029049E0A2
:1013500043F60400C4F20200016801F03F01059168
:1013600000684002002813D5FFE743F60400C4F2EA
:1013700002000068C0F3881041F20021C0F27A0137
:10138000A0FB0101059A0023FFF75EF8049012E02C
:1013900043F60400C4F202000068C0F3881042F271
:1013A0000041C0F2F401A0FB0101059A0023FFF700
:1013B0004BF80490FFE743F60400C4F20200006813
:1013C00000F44031022000EBD130039004980399DF
:1013D000B0FBF1F0029005E042F20040C0F2F400F0
:1013E0000290FFE7029806B080BD000080B586B08D
:1013F0000490049820B9FFE701208DF8170050E30E
:1014000004980078C007002800F0A580FFE743F6A5
:101410000800C4F20200006800F00C00042813D099
:10142000FFE743F60800C4F20200006800F00C0079
:1014300008281ED1FFE743F60400C4F2020000684A
:101440004002002815D5FFE743F60000C4F2020071
:10145000006800F400310020B0EB514F08D0FFE7E6
:101460000498406820B9FFE701208DF8170018E3C1
:1014700070E0FFE704984068B0F5803F09D1FFE7CE
:1014800043F60001C4F20201086840F480300860AD
:1014900020E004984068B0F5A02F0DD1FFE743F697
:1014A0000001C4F20201086840F480200860086866
:1014B00040F4803008600CE043F60001C4F2020101
:1014C000086820F480300860086820F480200860F4
:1014D000FFE7FFE7FFE704984068E8B1FFE7FFF7A1
:1014E0009BFC0390FFE743F60000C4F20200006893
:1014F00000F400310020B0EB514F0CD1FFE7FFF7B3
:101500008BFC0399401A652804D3FFE703208DF86C
:101510001700C6E2E7E71CE0FFF77EFC0390FFE759
:1015200043F60000C4F20200006800F4003100201D
:10153000B0EB514F0CD0FFE7FFF76EFC0399401A58
:10154000652804D3FFE703208DF81700A9E2E7E739
:10155000FFE7FFE7FFE7049800788007002840F1E5
:101560009680FFE743F60800C4F20200006810F01E
:101570000C0F13D0FFE743F60800C4F20200006826
:1015800000F00C0008282CD1FFE743F60400C4F259
:10159000020000684002002823D4FFE743F6000061
:1015A000C4F20200006800F002010020B0EB510F0D
:1015B00009D0FFE70498C068012804D0FFE70120A4
:1015C0008DF817006DE243F60001C4F202010868CD
:1015D00020F0F800049A126940EAC2000860FFE7B0
:1015E00054E00498C06870B3FFE70021C4F24721BB
:1015F00001200860FFF710FC0390FFE743F60000AE
:10160000C4F20200006800F002010020B0EB510FAC
:101610000CD1FFE7FFF700FC0399401A032804D31D
:10162000FFE703208DF817003BE2E7E743F60001F0
:10163000C4F20201086820F0F800049A126940EA36
:10164000C200086021E00021C4F2472100200860A8
:10165000FFF7E2FB0390FFE743F60000C4F202004D
:10166000006800F002010020B0EB510F0CD0FFE742
:10167000FFF7D2FB0399401A032804D3FFE70320A6
:101680008DF817000DE2E7E7FFE7FFE7FFE70498B3
:101690000078000700284BD5FFE70498406918B38D
:1016A000FFE740F68061C4F2472101200860FFF7A0
:1016B000B3FB0390FFE743F67400C4F20200006836
:1016C00000F002010020B0EB510F0CD1FFE7FFF753
:1016D000A3FB0399401A032804D3FFE703208DF8E6
:1016E0001700DEE1E7E722E040F68061C4F247211F
:1016F00000200860FFF790FB0390FFE743F67400BB
:10170000C4F20200006800F002010020B0EB510FAB
:101710000CD0FFE7FFF780FB0399401A032804D39E
:10172000FFE703208DF81700BBE1E7E7FFE7FFE7DE
:10173000049800784007002840F1CE80FFE70020A1
:101740008DF8070043F64000C4F202000068C000B4
:10175000002815D4FFE7FFE70020009043F6400083
:10176000C4F20200016841F080510160006800F09D
:10177000805000900098FFE701208DF80700FFE7F8
:1017800047F20000C4F200000068C005002822D41F
:10179000FFE747F20001C4F20001086840F48070DE
:1017A0000860FFF739FB0390FFE747F20000C4F23F
:1017B00000000068C00500280CD4FFE7FFF72CFBF1
:1017C0000399401A032804D3FFE703208DF817007C
:1017D00067E1EAE7FFE7FFE704988068012809D19D
:1017E000FFE743F67001C4F20201086840F001000F
:1017F00008601FE00498806805280DD1FFE743F6D4
:101800007001C4F20201086840F004000860086832
:1018100040F0010008600CE043F67001C4F20201E0
:10182000086820F001000860086820F004000860E3
:10183000FFE7FFE7FFE704988068F8B1FFE7FFF7ED
:10184000EBFA0390FFE743F67000C4F20200006871
:1018500000F002010020B0EB510F0ED1FFE7FFF7BF
:10186000DBFA0399401A41F28931884204D3FFE739
:1018700003208DF8170014E1E5E71EE0FFF7CCFA2E
:101880000390FFE743F67000C4F20200006800F026
:1018900002010020B0EB510F0ED0FFE7FFF7BCFABA
:1018A0000399401A41F28931884204D3FFE70320AB
:1018B0008DF81700F5E0E5E7FFE79DF80700012840
:1018C00009D1FFE743F64001C4F20201086820F0A5
:1018D00080500860FFE7FFE704988069002800F067
:1018E000DC80FFE743F60800C4F20200006800F065
:1018F0000C00082800F08580FFE704988069022822
:101900005CD1FFE76021C4F2472100200860FFF7A7
:1019100083FA0390FFE743F60000C4F20200006878
:1019200000F000710020B0EB516F0CD0FFE7FFF723
:1019300073FA0399401A032804D3FFE703208DF8B4
:101940001700AEE0E7E70499C869D1F820C04B6AF8
:101950008A6A40EA0C0040EA8310D2034FF6FF7314
:101960009A43A2F580321043C96A40EA016043F607
:101970000401C4F2020108606021C4F24721012081
:101980000860FFF749FA0390FFE743F60000C4F24E
:101990000200006800F000710020B0EB516F0CD124
:1019A000FFE7FFF739FA0399401A032804D3FFE74A
:1019B00003208DF8170074E0E7E721E06021C4F20E
:1019C000472100200860FFF727FA0390FFE743F65E
:1019D0000000C4F20200006800F000710020B0EBCB
:1019E000516F0CD0FFE7FFF717FA0399401A03284D
:1019F00004D3FFE703208DF8170052E0E7E7FFE785
:101A00004AE004988069012804D1FFE701208DF89D
:101A1000170046E043F60400C4F20200006802909A
:101A200004988069012831D0FFE7029800F4800013
:101A30000499C969884229D1FFE7029800F03F0064
:101A40000499096A884221D1FFE7029847F6C071DC
:101A500008400499496AB0EB811F17D1FFE702984B
:101A600000F440300499896AC9034FF6FF7291432C
:101A7000A1F58031884209D1FFE7029800F070603B
:101A80000499C96AB0EB016F04D0FFE701208DF81B
:101A9000170006E0FFE7FFE7FFE700208DF81700DB
:101AA000FFE79DF8170006B080BD000081B00090F0
:101AB00001B0704781B0009001B0704780B582B02E
:101AC0000090009820B9FFE701208DF807003FE063
:101AD000009890F83D0040B9FFE70099002081F898
:101AE0003C00009800F038F8FFE70099022081F8E8
:101AF0003D00009951F8040B00F0C6FC009901204C
:101B000081F84600FFE70099012081F83E00009926
:101B100081F83F00009981F84000009981F8410068
:101B2000FFE7FFE70099012081F84200009981F862
:101B30004300009981F84400009981F84500FFE7CF
:101B40000099012081F83D0000208DF80700FFE793
:101B50009DF8070002B080BD81B0009001B07047D1
:101B600083B00190019890F83D00012804D0FFE770
:101B700001208DF80B006AE00199022081F83D00F8
:101B800001980168C86840F00100C86001980068C9
:101B90000021C4F2010188423CD0FFE701980068AF
:101BA000B0F1804F36D0FFE70198006840F2004165
:101BB000C4F2000188422DD0FFE70198006840F68A
:101BC0000001C4F20001884224D0FFE701980068B8
:101BD00040F60041C4F2000188421BD0FFE70198A3
:101BE000006840F20041C4F20101884212D0FFE7D0
:101BF0000198006844F20001C4F20101884209D052
:101C0000FFE70198006841F60001C4F20001884234
:101C100012D1FFE701980068806800F0070000908B
:101C20000098062807D0FFE701980168086840F08F
:101C300001000860FFE706E001980168086840F0CD
:101C400001000860FFE700208DF80B00FFE79DF81A
:101C50000B0003B07047000081B0009001B07047E6
:101C600080B584B0039003980068C0680290039820
:101C70000068006901909DF804008007002824D5C1
:101C8000FFE79DF80800800700281DD5FFE70398AF
:101C900001686FF00200086103990120087703983A
:101CA00000688069800720B1FFE70398FFF7D4FF41
:101CB00006E0039800F0E2F8039800F0E3F8FFE78D
:101CC000039900200877FFE7FFE79DF8040040072D
:101CD000002825D5FFE79DF80800400700281ED5FD
:101CE000FFE7039801686FF0040008610399022080
:101CF000087703980068806910F4407F04D0FFE7FC
:101D00000398FFF7A9FF06E0039800F0B7F80398DF
:101D100000F0B8F8FFE7039900200877FFE7FFE736
:101D20009DF804000007002824D5FFE79DF808006F
:101D3000000700281DD5FFE7039801686FF0080031
:101D4000086103990420087703980068C069800738
:101D500020B1FFE70398FFF77FFF06E0039800F04C
:101D60008DF8039800F08EF8FFE7039900200877BC
:101D7000FFE7FFE79DF80400C006002825D5FFE730
:101D80009DF80800C00600281ED5FFE703980168EB
:101D90006FF0100008610399082008770398006825
:101DA000C06910F4407F04D0FFE70398FFF754FFA9
:101DB00006E0039800F062F8039800F063F8FFE78C
:101DC000039900200877FFE7FFE79DF80400C007AC
:101DD00078B1FFE79DF80800C00748B1FFE7039816
:101DE00001686FF001000861039800F04FF8FFE709
:101DF000FFE79DF804000006002810D5FFE79DF8D6
:101E000008000006002809D5FFE7039801686FF075
:101E1000800008610398FFF749FEFFE7FFE79DF8A0
:101E200004004006002810D5FFE79DF80800400692
:101E3000002809D5FFE7039801686FF040000861AA
:101E4000039800F033F8FFE7FFE79DF804008006F1
:101E5000002810D5FFE79DF808008006002809D566
:101E6000FFE7039801686FF0200008610398FFF70F
:101E700021FEFFE7FFE704B080BD000081B00090C5
:101E800001B0704781B0009001B0704780B582B05A
:101E90000190019800680021C4F20101884203D139
:101EA000FFE7FEF7BFFFFFE702B080BD81B0009003
:101EB00001B0704780B582B00090009820B9FFE76C
:101EC00001208DF8070040E00098806908B1FFE725
:101ED00000E0FFE7009890F8410040B9FFE7009963
:101EE000002081F84000009800F034F8FFE70099E6
:101EF000242081F8410000980168C86820F400504F
:101F0000C860009800F0E2FB00980168086920F4BE
:101F10009040086100980168486920F02A004861F3
:101F200000980168C86840F40050C860009900201B
:101F30004864009A202182F84110009A82F84210E9
:101F4000009948638DF80700FFE79DF8070002B08D
:101F500080BD000080B58AB00990002008900790ED
:101F60000690059004900998006841F20001C4F2BF
:101F70000101884234D1FFE7FFE70020039043F6D8
:101F80004400C4F20200016841F0100101600068E1
:101F900000F0100003900398FFE7FFE70020029095
:101FA00043F63000C4F20200016841F00101016013
:101FB000006800F0010002900298FFE74FF4C06053
:101FC000049002200590002006900320079007202F
:101FD00008900020C4F2020004A9FEF729FD3EE0AB
:101FE0000998006844F60001C4F20001884235D126
:101FF000FFE7FFE70020019043F64000C4F2020033
:10200000016841F480210160006800F480200190A3
:102010000198FFE7FFE70020009043F63000C4F28C
:102020000200016841F002010160006800F0020056
:1020300000900098FFE74FF4406004900220059064
:1020400000200690032007900720089040F20040EF
:10205000C4F2020004A9FEF7EBFCFFE7FFE70AB0B9
:1020600080BD000080B58AB008900791ADF81A20B5
:10207000059300200290089890F84100202840F035
:102080008180FFE7079820B1FFE7BDF81A0020B96B
:10209000FFE701208DF8270078E0089900204864C8
:1020A0000899212081F84100FEF7B6FE0290BDF8A4
:1020B0001A0008998884BDF81A000899C8840898FD
:1020C0008068B0F5805F09D1FFE70898006928B9FA
:1020D000FFE7002004900798039004E0079804901D
:1020E00000200390FFE7FFE70898C08C78B3FFE774
:1020F0000898029B05996A4611608021002200F031
:1021000083FB40B1FFE70899202081F841000320BC
:102110008DF827003AE0049858B9FFE70398008843
:102120006FF35F20089909684860039802300390B4
:1021300008E004980078089909684860049801301C
:102140000490FFE70899C88C0138C884CCE7089848
:10215000029B05996A4611604021002200F054FB61
:1021600040B1FFE70899202081F8410003208DF855
:1021700027000BE00899202081F8410000208DF80D
:10218000270003E002208DF82700FFE79DF82700D5
:102190000AB080BDFFE7FEE780B58EB000200D904D
:1021A0000C900B900A900990FFE70020089043F6EE
:1021B0003000C4F20200016841F0040101600068CF
:1021C00000F0040008900898FFE7FFE70020079060
:1021D00043F63000C4F20200016841F020010160C2
:1021E000006800F0200007900798FFE7FFE7002055
:1021F000069043F63000C4F20200016841F080010D
:102200000160006800F0800006900698FFE7FFE795
:102210000020059043F63000C4F20200016841F04E
:1022200002010160006800F0020005900598FFE7D8
:10223000FFE70020049043F63000C4F2020001687A
:1022400041F001010160006800F001000490049871
:10225000FFE741F20040C4F2020003904FF4C06176
:10226000019100220292FEF7BFFD019A02990398A4
:10227000099201220A920B910C9109A9FEF7D8FB51
:102280000EB080BD80B500F0DBFE80BD80B582B0B1
:1022900040F2A060C2F20000019041F20001C4F2DD
:1022A000010101604FF4E131416000218160C160B2
:1022B00001610C2242618161C161FFF7FBFD18B130
:1022C000FFE7FEF7B1FBFFE702B080BD80B582B04B
:1022D00040F2E860C2F20000019044F60001C4F24E
:1022E000000101604FF4E131416000218160C16073
:1022F00001610C2242618161C161FFF7DBFD18B110
:10230000FFE7FEF791FBFFE702B080BD80B582B02A
:10231000019044F67A60C0F6000002F029F9FFE768
:1023200044F68E60C0F6000002F022F9C82001F0E9
:1023300053F8F5E7FFE7FEE7FFE7FEE788B0079011
:1023400006910592079800F0070004900498C0F1E8
:102350000700052803D3FFE70420019004E0049858
:10236000C0F107000190FFE7019803900498043042
:10237000062803D8FFE70020009003E00498033804
:102380000090FFE70098029006980399012202FA54
:1023900001F101390840029B984005999A40013AA1
:1023A0001140084308B0704780B594B008A83021A8
:1023B000FEF782F8002007900690059004900390A5
:1023C000FFE70020029043F64000C4F202000168DB
:1023D00041F080510160006800F080500290029846
:1023E000FFE7FFE70020019047F20000C4F2000081
:1023F000016841F480410160006800F48040019070
:102400000198FFE7012008904FF4803009900221E5
:102410000E914FF480000F9004201090A82211928A
:102420001291139008A8FEF7E1FF18B1FFE7FEF73D
:10243000FBFAFFE70F200390022004900020059094
:102440004FF4A05006904FF48050079003A8052148
:10245000FEF7D2FD18B1FFE7FEF7E6FAFFE714B08A
:1024600080BD00004EF68851CEF20001086840F4AD
:10247000700008607047000080B540F25860C2F2FA
:102480000000FFF7EDFB80BD83B002900191029840
:102490000068009002980021C4F20101884225D012
:1024A000FFE70298B0F1804F20D0FFE7029840F29A
:1024B0000041C4F20001884218D0FFE7029840F6BC
:1024C0000001C4F20001884210D0FFE7029840F6F4
:1024D0000041C4F20001884208D0FFE7029840F2B0
:1024E0000041C4F2010188420AD1FFE7009820F0C0
:1024F0007000009001984168009808430090FFE741
:1025000002980021C4F20101884255D0FFE70298E9
:10251000B0F1804F50D0FFE7029840F20041C4F282
:102520000001884248D0FFE7029840F60001C4F25B
:102530000001884240D0FFE7029840F60041C4F213
:102540000001884238D0FFE7029840F20041C4F20F
:102550000101884230D0FFE7029844F20001C4F242
:102560000101884228D0FFE7029844F20041C4F2FA
:102570000101884220D0FFE7029844F60001C4F22E
:102580000101884218D0FFE7029841F60001C4F229
:102590000001884210D0FFE7029841F60041C4F2E2
:1025A0000001884208D0FFE7029842F20001C4F21D
:1025B000000188420AD1FFE7009820F440700090A3
:1025C0000198C168009808430090FFE7009820F048
:1025D00080000199496908430090009802990860B9
:1025E000019880680299C86201980068029988621F
:1025F00002980021C4F20101884208D0FFE7029846
:1026000040F20041C4F20101884205D1FFE7019880
:10261000006902990863FFE7029901204861029866
:102620000069C00730B1FFE70299086920F0010096
:102630000861FFE703B0704784B00390FFE7FFE74E
:102640000398006850E8030F20F490700290FFE7B1
:1026500002990398026842E803100028F0D1FFE7CE
:10266000FFE7FFE7FFE70398006850E8050F20F059
:1026700001000190FFE701990398026842E8051004
:102680000028F0D1FFE7FFE70398006B012814D181
:10269000FFE7FFE7FFE70398006850E8030F20F02B
:1026A00010000090FFE700990398026842E80310C9
:1026B0000028F0D1FFE7FFE7FFE70399202081F82A
:1026C000420003990020086304B0704780B586B0CB
:1026D000059005980068006920F44050059A11683B
:1026E000D26810430861059988680B694A69C9690D
:1026F000184310430843049005980068C06849F2E5
:102700000C6188430499084305990968C8600598D5
:102710000068406920F44070059A1168926910437E
:1027200048610598006841F20001C4F20101884245
:1027300009D0FFE70598006841F20041C4F20101A9
:10274000884204D1FFE7FEF7CBFD039003E0FEF7DC
:10275000B5FD0390FFE70598C069B0F5004F29D19A
:10276000FFE703981921A0FB0101059A1368029362
:1027700053685A00DB0FFDF767FE0299864648F260
:102780001F53C5F2EB13AEFB0320420910014FF0BB
:10279000640C02FB1CEC322202EBCC02A2FB0332E3
:1027A000F82303EA521300EB4300C2F34212104431
:1027B000886026E003981921A0FB0101059A13689F
:1027C000019353689A009B0FFDF73EFE01998446E2
:1027D00048F21F52C5F2EB12ACFB023043096420F1
:1027E00003FB10CC322000EB0C10A0FB0202F02007
:1027F00000EA521000EB0310C2F343121044886049
:10280000FFE706B080BD000080B586B0DDF820C0CF
:10281000049003918DF80B200193FFE70498006862
:10282000006803990840401AB0FA80F040099DF80A
:102830000B1088424DD1FFE708980130002847D09F
:10284000FFE7FEF7E9FA0199401A0899884203D890
:10285000FFE7089820B9FFE703208DF817003CE058
:1028600004980068C0684007002830D5FFE7039847
:1028700080282CD0FFE70398402828D0FFE7049851
:102880000068006800F008010120B0EBD10F1DD1F5
:10289000FFE7FFE7002000900498006800680090C0
:1028A00004980068406800900098FFE70498FFF7DC
:1028B000C3FE049908204864FFE70499002081F8CA
:1028C0004000FFE701208DF8170006E0FFE7FFE773
:1028D000A4E700208DF81700FFE79DF8170006B069
:1028E00080BD0000FFE7FEE781B08DF803009DF991
:1028F000030000280ED4FFE79DF9031001F01F022A
:10290000012090404A094EF20011CEF2000141F838
:102910002200FFE701B070474EF60C50CEF20000E7
:102920000068C0F30220704782B08DF80700009164
:102930009DF9070000280AD4FFE7009800019DF9DF
:1029400007104EF20042CEF2000288540BE00098CD
:1029500000019DF8071001F00F014EF61452CEF25F
:1029600000028854FFE702B07047000083B0029075
:10297000029800F0070000904EF60C51CEF20001D4
:102980000868019001984FF6FF02104001900198ED
:10299000009A40EA02200022C0F2FA52104301904D
:1029A0000198086003B0704780B596B00C900B9109
:1029B0000A9209930A98033020F003000A90EFF37B
:1029C00010800E900E980D9072B60D98089040F2FF
:1029D0005800C2F200000068069000200190FFE756
:1029E00006980C99086208980F900F9880F3108849
:1029F0000C980A9900F0C2F90590EFF3108011903D
:102A00001198109072B610980890059818B1FFE7C9
:102A10000120019009E00C98006A0699884203D1D0
:102A2000FFE701200190FFE7FFE7FFE7019800289B
:102A3000D6D0FFE705980B990860059840B1FFE7ED
:102A400008981290129880F310880020079073E085
:102A50000998002867D0FFE740F26800C2F2000042
:102A6000006840B1FFE71020079008981390139872
:102A700080F3108856E0069942F64130C0F6000017
:102A800088660C980699C8660B980699C8670A98D4
:102A9000069988670699D1F8AC000130C1F8AC00FE
:102AA0000C98806A04900C99886A013088620498B6
:102AB00040B9FFE706980C994862069800670698A7
:102AC000406712E00C98406A0390039806990867E3
:102AD0000398406F029002980699486706980299F9
:102AE0000867069803994867FFE706990920086375
:102AF00006990120886309980699C86440F2680124
:102B0000C2F2000108680130086008981490149817
:102B100080F31088069800F03DFE0698D0F88400F7
:102B20000790FFE707E008981590159880F3108844
:102B300010200790FFE7FFE7079816B080BD000060
:102B400080B58EB007900691EFF310800990099838
:102B5000089072B6089805900798806E42F6413149
:102B6000C0F6000188426AD1FFE706980799D1F8BC
:102B7000AC10884262D1FFE70798C06E04900498B9
:102B800000285AD0FFE70498006845F24541C4F296
:102B90005921884250D1FFE70498806A00284AD022
:102BA000FFE70799002088660499886A01388862DF
:102BB0000498806A0390039820B9FFE704990020E5
:102BC000486216E00798006F02900798406F0190E6
:102BD0000198029948670298019908670498406A29
:102BE0000799884204D1FFE7029804994862FFE7F9
:102BF000FFE70798006B09281CD1FFE70799102011
:102C0000C1F8840040F26801C2F200010868013096
:102C1000086005980A900A9880F31088079800F0D9
:102C200095FCEFF310800C900C980B9072B60B98FB
:102C30000590FFE7FFE7FFE7FFE7FFE7FFE70598FE
:102C40000D900D9880F310880EB080BD80B58EB0C9
:102C50000A900991089207930A983421FDF72CFCF9
:102C6000079820F00300079009980A99486008988F
:102C70000A99886107980A99C86108980A990861B1
:102C800008980A994861079808380A9988600A994B
:102C90000220C86008980590059807990844059097
:102CA0000598043805900A980390059804900398B5
:102CB00004990860059804380590059804900898D0
:102CC0000499086008980390039804900598049963
:102CD00008600898059005980430059005980090C4
:102CE00000994EF6EE60CFF6FF7008600A9900205A
:102CF0000862EFF310800C900C980B9072B60B9852
:102D000006900A9945F24540C4F25920086040F205
:102D10002400C2F20000006858B9FFE70A9840F2A8
:102D20002801C2F2000108600A98C0620A98006394
:102D300015E040F22800C2F20000006802900298FC
:102D4000006B01900A98029908630A980199C86279
:102D500001980A99086302980A99C862FFE740F24D
:102D60002401C2F2000108680130086006980D9045
:102D70000D9880F3108800200EB080BD96B00D90A5
:102D80000C9100200490EFF310800F900F980E909C
:102D900072B60E980B900D998868C96800EBC10057
:102DA000103800900C980099884208D3FFE70B98E0
:102DB0001090109880F3108800200A90F9E040F2FB
:102DC0005800C2F200000068039003980D99086251
:102DD0000D9840690A900D98C06801300590002058
:102DE0000690FFE70A98043001900198029002983B
:102DF00000684EF6EE61CFF6FF7188424FD1FFE7D3
:102E0000049830B9FFE70A980D99486101200490B1
:102E1000FFE70A98089008980068099009980A99AD
:102E2000401A069006980838069006980C99884231
:102E300001D3FFE764E00020069009980430019078
:102E400001980290029800684EF6EE61CFF6FF718D
:102E5000884215D1FFE709980790079800680899FC
:102E600008600D99C8680138C8600D9840690999D3
:102E7000884204D1FFE70A980D994861FFE70CE00A
:102E800009980790079800680A90059820B1FFE715
:102E9000059801380590FFE7FFE7FFE705E00A988E
:102EA0000890089800680A90FFE7059820B1FFE7AE
:102EB000059801380590FFE70B981190119880F361
:102EC0001088EFF3108013901398129072B6129836
:102ED0000B900D98006A039988420BD0FFE70D987C
:102EE00040690A900D98C0680130059003980D99CB
:102EF0000862FFE7FFE7059800287FF473AFFFE75C
:102F0000069800284CD0FFE706980C99401A142820
:102F100022D3FFE70A990C980844083009900998D1
:102F200007900A980890089800680799086009981F
:102F3000043001900198029002994EF6EE60CFF6AF
:102F4000FF7008600D99C8680130C8600998089939
:102F500008600C980690FFE70A98043001900198E9
:102F600008900D98089908600D998868069A801A4B
:102F7000083888600A980D994969884207D1FFE7A7
:102F80000A980890089800680D994861FFE70B9827
:102F90001490149880F310880A9808300A9007E07B
:102FA0000B981590159880F3108800200A90FFE781
:102FB000FFE70A9816B0704780B500F083F900F07B
:102FC000D3FD40F24C01C2F200010020086040F243
:102FD0004801C2F20001086040F24401C2F200015F
:102FE000086040F24001C2F20001086040F2300186
:102FF000C2F20001086040F22C01C2F20001086038
:1030000040F21C01C2F20001086040F21801C2F255
:103010000001086040F22801C2F20001086040F29D
:103020002401C2F20001086040F23C01C2F200013A
:10303000086040F23801C2F20001086080BD000063
:1030400080B582B040F20800C2F20000006810F1C2
:103050000F3F13D0FFE740F20801C2F200014FF02A
:10306000F0300860FDF7BCF8FFF7A6FF40F26801FA
:10307000C2F20001086801300860FFE740F2080171
:10308000C2F2000101914FF0F030086040F23400CC
:10309000C2F20000006801F043FA019900200860C4
:1030A000FDF7E6F802B080BD80B592B0DDF864C0EF
:1030B000DDF860C0DDF85CC0DDF858C0DDF854C054
:1030C000DDF850C009900891079206930020019006
:1030D00014981599EF22FDF7E8F90998B021FDF74A
:1030E000EBF9089809998862079809994864069845
:1030F0000999886414980999C860159809994861D4
:1031000016980999C86216980999C1F894001898F8
:103110000999886118980999C86109992020C1F80E
:103120009C0014980090009915980844013800906C
:1031300000980999086116981799884207D0FFE707
:1031400009990020C8630999C1F8980007E016980A
:103150000999C86316980999C1F89800FFE7099979
:1031600003200863099943F6B920C0F600004865BA
:1031700009988065099843F24531C0F60001FDF7D2
:10318000DFF8EFF310800B900B980A9072B60A9854
:103190000590099945F24420C5F24840086040F284
:1031A0005000C2F20000006868B9FFE7099840F2D9
:1031B0005401C2F2000108600998C0F8880009981B
:1031C000C0F88C001AE040F25400C2F2000000681F
:1031D00004900498D0F88C00039009980499C1F8E1
:1031E0008C0009980399C1F8880003980999C1F8DF
:1031F0008C0004980999C1F88800FFE740F250015B
:10320000C2F2000108680130086040F26801C2F2B1
:1032100000010868013008601998012832D1FFE7E1
:1032200040F20800C2F200000068EFF305810C9143
:103230000C990843B0F1F03F11D3FFE740F25C0076
:10324000C2F2000000680290029838B1FFE70298CD
:10325000C06B01900299C86AC863FFE702E00020D2
:103260000290FFE705980D900D9880F3108809985B
:1032700000F06CF9029820B1FFE701980299C86349
:10328000FFE71BE005980E900E9880F31088EFF38F
:103290001080109010980F9072B60F98059040F221
:1032A0006801C2F2000108680138086005981190B1
:1032B000119880F3108800F011F9FFE7002012B098
:1032C00080BD000080B582B040F25801C2F200011A
:1032D00000200190086040F25C01C2F20001086029
:1032E00040F2EC01C2F20001086040F26001C2F25B
:1032F00000012020086040F26C00C2F20000802132
:10330000FDF7DAF8019840F25401C2F200010860BA
:1033100040F25001C2F20001086040F26801C2F2BE
:103320000001086040F26401C2F20001086040F24E
:103330002001C2F20001086840F08570086002B008
:1033400080BD000080B588B040F25800C2F2000095
:10335000006801900198416C806C884740F26400DD
:10336000C2F20000006840B1FFE740F26400C2F220
:103370000000016801988847FFE7EFF31080049090
:103380000498039072B60398029001990120086393
:103390000199886301990020C86440F26801C2F273
:1033A000000108680130086002980590059880F3D4
:1033B0001088EFF31480069006980090009820F093
:1033C0000400009000980790079880F314880198F3
:1033D00000F0E0F908B080BD80B58EB00490EFF346
:1033E000108006900698059072B60598039040F2FA
:1033F0005800C2F2000000680190019840B9FFE750
:1034000003980790079880F310881320029062E0D9
:1034100040F20800C2F200000068EFF30581089155
:103420000899084340B1FFE703980990099880F391
:103430001088132002904DE0019840F2A411C2F2CE
:103440000001884208D1FFE703980A900A9880F3A8
:103450001088132002903CE0049840B9FFE70398DD
:103460000B900B9880F310880020029030E040F21F
:103470006800C2F20000006840B1FFE703980C90BA
:103480000C9880F310881320029020E0019904200A
:10349000086301990120886301990020C1F8840024
:1034A00004980199C86440F26801C2F200010868FA
:1034B0000130086003980D900D9880F310880198F2
:1034C00000F068F90198D0F884000290FFE7FFE768
:1034D000FFE7FFE7FFE702980EB080BD87B040F23C
:1034E0006800C2F2000000680290029860BBFFE72B
:1034F00040F25800C2F200000068019040F25C0007
:10350000C2F20000006800900198009988421AD029
:10351000FFE74EF60451CEF200014FF080500860F4
:10352000EFF305800490049860B9FFE7EFF3108093
:1035300005900598039062B603980690069880F36C
:103540001088FFE7FFE7FFE707B0704780B596B048
:103550000990EFF310800B900B980A9072B60A98BE
:1035600008900998406E28B1FFE709984C3000F0A8
:10357000F5FB03E009990020C864FFE740F2680109
:10358000C2F200010868013808600998806B0028C1
:1035900040F0A880FFE70998006B002800F0A180A8
:1035A000FFE70998406B002840F09380FFE70999F6
:1035B000002008630998C06A0790079940F26C00E0
:1035C000C2F2000050F821000590059800286FD144
:1035D000FFE70998079A40F26C01C2F2000141F836
:1035E00022000998006209984062079901208840EA
:1035F000069040F2EC01C2F200010868069A1043FE
:103600000860079840F26001C2F200010968884230
:103610004DD2FFE7079840F26001C2F20001086056
:1036200040F25C00C2F2000000680390039838B9D1
:10363000FFE7099840F25C01C2F20001086035E042
:1036400007980399C96B88422FD2FFE7099840F287
:103650005C01C2F20001086008980C900C9880F39D
:10366000108840F26800C2F20000006801900198E2
:10367000D0B9FFE74EF60451CEF200014FF0805072
:103680000860EFF305800E900E9860B9FFE7EFF346
:1036900010800F900F980D9062B60D9810901098B2
:1036A00080F31088FFE7FFE772E0FFE7FFE70FE036
:1036B0000598406A04900998049908620998059948
:1036C0004862049809994862059809990862FFE7D9
:1036D00006E0099900204863099903200863FFE781
:1036E000FFE71DE00998006B012818D0FFE7099853
:1036F000006B022812D0FFE70998406B30B9FFE752
:103700000999002088630999086306E00999002057
:103710004863099903200863FFE7FFE7FFE7FFE736
:1037200040F25800C2F20000006802900898119020
:10373000119880F31088029840F25C01C2F20001F7
:103740000968884224D0FFE740F26800C2F2000016
:10375000006801900198D0B9FFE74EF60451CEF20F
:1037600000014FF080500860EFF30580139013982C
:1037700060B9FFE7EFF3108014901498129062B6CE
:1037800012981590159880F31088FFE7FFE7FFE780
:1037900016B080BD80B59CB00A9040F25800C2F2CD
:1037A000000000680190EFF310800C900C980B90D3
:1037B00072B60B9809900A980199884218D1FFE7D0
:1037C0000A98C06C0090009850B1FFE70098013053
:1037D00028B1FFE70A984C3000F056FAFFE7FFE700
:1037E0000A98C06940F25461C2F200010860FFE724
:1037F00040F26801C2F200010868013808600A98C6
:10380000806B012840F0D180FFE70A99002088638F
:103810000A98C06A08900A98006A039003980A9967
:1038200088421ED0FFE70A98406A029002980399E6
:103830004862039802990862089940F26C00C2F24B
:10384000000050F821000A99884209D1FFE7039847
:10385000089A40F26C01C2F2000141F82200FFE731
:1038600060E0089A40F26C00C2F20000002140F8CB
:103870002210089A01209040059040F2EC00C2F21C
:1038800000000268059B9A43026007910068069059
:103890000698A8BBFFE740F26001C2F200012020B9
:1038A000086040F25C01C2F2000100200860099843
:1038B0000D900D9880F3108840F26800C2F200006D
:1038C000006804900498D0B9FFE74EF60451CEF298
:1038D00000014FF080500860EFF305800F900F98C3
:1038E00060B9FFE7EFF31080109010980E9062B669
:1038F0000E981190119880F31088FFE7FFE787E09A
:10390000069890FAA0F006900698B0FA80F005901C
:1039100007980599084440F26001C2F2000108606E
:10392000FFE7FFE70A9840F25C01C2F20001096874
:10393000884239D1FFE740F26000C2F2000001681E
:1039400040F26C00C2F2000050F8210040F25C012D
:10395000C2F20001086009981290129880F3108852
:1039600040F26800C2F20000006804900498D0B9E8
:10397000FFE74EF60451CEF200014FF08050086090
:10398000EFF305801490149860B9FFE7EFF310800F
:1039900015901598139062B613981690169880F3A8
:1039A0001088FFE7FFE733E0FFE7099817901798C3
:1039B00080F31088019840F25C01C2F200010968AE
:1039C000884224D0FFE740F26800C2F2000000689D
:1039D00004900498D0B9FFE74EF60451CEF20001EE
:1039E0004FF080500860EFF305801990199860B986
:1039F000FFE7EFF310801A901A98189062B61898A3
:103A00001B901B9880F31088FFE7FFE7FFE7FFE7B5
:103A10001CB080BD85B040F25800C2F200000068C2
:103A20000090EFF3108003900398029072B6029812
:103A3000019040F20411C2F20001002008600098D9
:103A400090B3FFE70098006B68BBFFE70099C86977
:103A500088610098806940F25461C2F200010860F8
:103A60000099086A88421DD0FFE70099C86AC96BAF
:103A7000884216D1FFE70098016AC26A40F26C00E2
:103A8000C2F2000040F8221040F26001C2F20001D0
:103A9000096850F8210040F25C01C2F200010860A0
:103AA000FFE7FFE7FFE7FFE701980490049880F342
:103AB000108805B07047000080B58AB00590059861
:103AC0000390EFF3108007900798069072B606985F
:103AD00004900398006B042810D1FFE740F26801BE
:103AE000C2F2000108680130086004980890089844
:103AF00080F310880398FFF729FD14E00398806E87
:103B000002900398D0F8AC000190049809900998AD
:103B100080F31088029828B1FFE7029A0398019970
:103B20009047FFE7FFE70AB080BD000080B584B092
:103B3000EFF3108002900298019072B60198009005
:103B400040F26801C2F20001086801300860009884
:103B50000390039880F3108840F2A410C2F2000092
:103B6000FFF7F4FC04B080BD80B58AB040F2A0112C
:103B7000C2F2000100200890086040F25461C2F2D5
:103B80000001086040F20411C2F20001086040F236
:103B90000011C2F20001086040F20811C2F20001F7
:103BA000086040F20C10C2F2000007908021FCF780
:103BB00083FC0799089840F29012C2F2000211604B
:103BC00040F2FC02C2F2000211607C3140F28C1221
:103BD000C2F20002116011680431116040F29C12BF
:103BE000C2F2000240F25421C2F20001116040F220
:103BF0009812C2F200024FF48061116040F29411F9
:103C0000C2F200010860FFE740F29C10C2F200001F
:103C1000006840F29811C2F200010A6840F2941163
:103C2000C2F200010B6869464FF0000CC1F814C0E5
:103C3000C1F810C0CB608B604A60086040F2A410ED
:103C4000C2F2000044F6B461C0F6000143F6CD5262
:103C5000C0F6000244F64D13C4F25413FFF724FAE1
:103C60000990FFE709980028CED1FFE740F2F8015C
:103C7000C2F200010020086040F2F401C2F200012B
:103C800008600AB080BD000087B006900698006802
:103C90000190019800285FD0FFE7019801300028CB
:103CA00059D0FFE706988069002853D1FFE70198B3
:103CB000212803D3FFE71F20009003E0019801387B
:103CC0000090FFE740F2FC00C2F20000006800999B
:103CD00000EB81000590059840F28C11C2F20001C2
:103CE0000968884213D3FFE7059840F28C11C2F2AD
:103CF00000010968401A8010029040F29010C2F250
:103D000000000068029900EB81000590FFE705982C
:103D1000006840B9FFE70698006106984061069880
:103D20000599086012E005980068049004984069BD
:103D300003900698039908610698049948610498CD
:103D400006990861039806994861FFE70598069966
:103D50008861FFE7FFE7FFE707B0704784B0039093
:103D6000039880690290029870B3FFE70398006996
:103D700001900398019988420BD1FFE702980068EF
:103D80000399884204D1FFE7029900200860FFE709
:103D900016E00398406900900098019948610198E5
:103DA00000990861029800680399884207D1FFE7EB
:103DB000029801998861019802990860FFE7FFE77E
:103DC000039900208861FFE704B0704780B598B080
:103DD0000A90002002900A9844F64D11C4F2541142
:103DE000884240F0FD80FFE7FFE7EFF310800C9082
:103DF0000C980B9072B60B98099040F2FC00C2F23E
:103E00000000006800680890089820B1FFE7089952
:103E100008A88861FFE740F2FC00C2F200000268D7
:103E200000211160016804310160006840F28C11CA
:103E3000C2F20001096888420BD1FFE740F29010FE
:103E4000C2F20000006840F2FC01C2F2000108600A
:103E5000FFE740F20011C2F200010020086009985B
:103E60000D900D9880F31088EFF310800F900F984D
:103E70000E9072B60E980990FFE70898002800F09F
:103E80008680FFE708980490089800690690002053
:103E9000079004980699884203D1FFE70020089014
:103EA0000EE00498406905900598069948610698C7
:103EB00005990861069908A8886106980890FFE7A7
:103EC0000498006821280ED3FFE704990868203879
:103ED000086000200390049907A888610498006195
:103EE0000498079019E00498806803900498C068CB
:103EF00002900499486808600498006840B1FFE7A0
:103F0000049907A88861049800610498079003E069
:103F1000049900208861FFE7FFE7049840F2081148
:103F2000C2F20001086009981090109880F3108880
:103F3000039820B1FFE7039902988847FFE7EFF362
:103F4000108012901298119072B61198099040F258
:103F50000811C2F200010020086007980499884205
:103F600007D1FFE70499002088610498FFF78CFED1
:103F7000FFE709981390139880F31088EFF31080EF
:103F800015901598149072B61498099075E740F240
:103F90000010C2F200000068D8B9FFE740F2A41098
:103FA000C2F20000019001990320086301990120E9
:103FB000886340F26801C2F20001086801300860BD
:103FC00009981690169880F310880198FFF7E2FB85
:103FD00005E009981790179880F31088FFE704E729
:103FE00018B080BD80B58AB0069005910492039305
:103FF00000200290069818B9FFE70220029038E0EE
:104000000698006845F24541C4F25921884203D020
:10401000FFE7022002902BE0059818B9FFE7032084
:10402000029024E0049818B9FFE7052002901DE0F3
:1040300004980699C969884203D9FFE705200290D0
:1040400013E0039880B1FFE740F20800C2F20000DD
:104050000068EFF3058107910799084318B1FFE75E
:1040600004200290FFE7FFE7FFE7FFE7FFE7FFE736
:10407000FFE7029890B9FFE740F25800C2F2000053
:1040800000680190019840F2A411C2F20001884238
:1040900003D1FFE713200290FFE7FFE7029800BB80
:1040A000FFE740F20800C2F200000068EFF305816C
:1040B00008910899084398B1FFE740F20800C2F25E
:1040C00000000068EFF30581099109990843000990
:1040D000B0F10F3F03D2FFE713200290FFE7FFE7A5
:1040E000FFE7029840B9FFE706980599049A039BF9
:1040F000FEF75AFC0290FFE702980AB080BD00006C
:1041000080B592B0DDF850C00990089107920693EF
:1041100000200490099818B9FFE7022004909BE062
:104120001498342803D0FFE70220049093E0EFF3C3
:1041300010800B900B980A9072B60A98059040F286
:104140006801C2F2000108680130086005980C900F
:104150000C9880F3108840F22800C2F2000000683A
:10416000029000200390FFE7039840F22401C2F27E
:104170000001096888420FD2FFE709980299884236
:1041800001D1FFE708E00298C06A0290FFE7FFE76D
:10419000039801300390E7E7EFF310800E900E983C
:1041A0000D9072B60D98059040F26801C2F20001C0
:1041B00008680138086005980F900F9880F3108800
:1041C000FFF78CF909980299884203D1FFE7022092
:1041D00004903FE0079818B9FFE70320049038E007
:1041E0000698632803D8FFE70520049030E040F2EA
:1041F0005800C2F2000000680190019840F2A4113A
:10420000C2F20001884203D1FFE713200490FFE7C8
:1042100040F20800C2F200000068EFF3058110913F
:104220001099084398B1FFE740F20800C2F200007D
:104230000068EFF305811191119908430009B0F16D
:104240000F3F03D2FFE713200490FFE7FFE7FFE7EC
:10425000FFE7FFE7FFE7FFE7049840B9FFE70998AA
:104260000899079A069BFEF7F1FC0490FFE7049873
:1042700012B080BD2DE9F0419AB0DDF898C0DDF8AC
:1042800094C0DDF890C0DDF88CC0DDF888C0DDF8A2
:1042900084C0DDF880C0119010910F920E93002021
:1042A0000C90119818B9FFE70E200C90F0E02698BA
:1042B000B02803D0FFE70E200C90E8E0EFF3108069
:1042C00013901398129072B612980D9040F26801F4
:1042D000C2F200010868013008600D98149014982B
:1042E00080F3108800200B9040F25401C2F20001CC
:1042F0000968099120990791079A21991144013978
:104300000791079908910A90FFE70A9840F2500137
:10431000C2F20001096888423AD2FFE71198099970
:10432000884203D1FFE701200B90FFE70B9801289B
:1043300001D1FFE72CE020980999C96888420CD385
:10434000FFE7209809990969884205D2FFE7002014
:10435000209001200B90FFE7FFE708980999C968B2
:1043600088420CD3FFE7089809990969884205D269
:10437000FFE70020209001200B90FFE7FFE709985E
:10438000D0F888000990FFE70A9801300A90BCE74E
:10439000EFF3108016901698159072B615980D9040
:1043A00040F26801C2F200010868013808600D9807
:1043B0001790179880F31088FFF790F811980999D3
:1043C000884203D1FFE70E200C905FE0209818B9D7
:1043D000FFE703200C9058E00F9818B9FFE703207F
:1043E0000C9051E02198C72803D8FFE705200C90D6
:1043F00049E02298202803D3FFE70F200C9041E0EA
:1044000023982299884203D9FFE718200C9038E0BE
:104410002598022803D3FFE710200C9030E040F2EB
:104420005800C2F2000000680690069840F2A411FD
:10443000C2F20001884203D1FFE713200C90FFE78E
:1044400040F20800C2F200000068EFF30581189105
:104450001899084398B1FFE740F20800C2F2000043
:104460000068EFF305811991199908430009B0F12B
:104470000F3F03D2FFE713200C90FFE7FFE7FFE7B2
:10448000FFE7FFE7FFE7FFE7FFE7FFE7FFE7FFE7FC
:104490000C98E8B9FFE7119810990F9A0E9BDDF878
:1044A00080C0219C229D239E249FDDF89480EE46AF
:1044B000CEF81480CEF81070CEF80C60CEF808500C
:1044C000CEF80440CEF800C0FEF7EEFD0C90FFE7FA
:1044D0000C981AB0BDE8F08180B582B001900091CF
:1044E00040F2A060C2F2000001A901224FF6FF7362
:1044F000FDF7B8FD019802B080BD000080B582B024
:1045000000200190FCF79CFCFDF74EFFFDF744FEF8
:10451000FDF7DCFEFDF7BAFEFDF7B4FEFFE7FEE7B0
:1045200080B584B0039069463420086040F2307052
:10453000C2F2000044F6A161C0F6000140F26472CC
:10454000C2F200024FF42053FFF7DAFD08B1FFE793
:104550000BE040F23070C2F2000002900298FCF7CB
:1045600025FA08B1FFE7FFE7FFE704B080BD0000D0
:104570000FB4054B10B503A9044A029800F0DAF80D
:1045800010BC5DF814FB0000D944000800000020B6
:1045900002E008C8121F08C1002AFAD1704770470C
:1045A000002001E001C1121F002AFBD1704700006A
:1045B0002DE9FF5F82B00021DDE90430020DDDF856
:1045C00040B0034318D044F61050A2F2FF324243E9
:1045D0001514119801281FD0A5EB0B00401C5FEAB1
:1045E000000A4FF000064E4FDFF83891B0465046B3
:1045F00015D5CAF1000413E0119801244AA301283B
:1046000001D16FEA0B010298119AC0E90031C0E9AB
:10461000024206B0BDE8F09FCBF10000DFE70446A0
:104620000021404A491842EB0450CDE9001012E045
:10463000E00707D032463B4640464946FCF723F8A0
:104640008046894632463B4610461946FCF71BF821
:1046500006460F466410002CEAD1DDE90401DDE9CD
:104660000023BAF1000F06DAFCF70DF842464B467C
:10467000FCF709F805E0FCF778F842464B46FCF7F2
:1046800074F804460E460022284BFCF7F5F803D8D0
:104690004FF0FF30014607E00022254B204631460F
:1046A000FBF74AFFFCF7D0F8102409E0002C0ADBE6
:1046B0000A220023FBF7C8FE039B30321A55641E02
:1046C00050EA0102F2D1641C039AC4F111031444AC
:1046D000119A012A03D0012208430DD10AE00843B0
:1046E00004D000204FF0110B119072E7A3EB0B05E3
:1046F0006D1E0DE05B4504DD4FF0000205F1010584
:1047000004E003DA4FF00002A5F10105002AECD025
:1047100002981199C0E90231C0E9004579E700002B
:10472000000014400000F03F300000000000F043A3
:104730000000E03F2DE9FF4F95B09B4689460646B5
:1047400000250FE2252877D100242746F84A0121C9
:10475000059400E0044316F8013F203B01FA03F002
:104760001042F7D130782A2811D06FF02F0330781B
:10477000A0F13002092A16D8059A44F0020402EB8F
:10478000820203EB42021044761C0590EFE759F8D1
:10479000042B0592002A03DA504244F40054059099
:1047A00044F00204761C30782E2816D116F8010F3A
:1047B00044F004042A280DD06FF02F023078A0F1C5
:1047C0003003092B09D807EB870302EB4303C71813
:1047D000761CF3E759F8047B761C30786C280FD0F0
:1047E00006DC4C2817D068280DD06A2814D104E0C4
:1047F000742810D07A280FD10DE044F400140AE098
:1048000044F4801401E044F440147278824202D1EE
:1048100004F58014761C761C307866280BD013DCE7
:10482000582877D009DC002875D04528F6D04628CE
:10483000F4D047281AD19DE118E0632835D06428C8
:1048400079D0652812D195E1702873D008DC6728EB
:10485000F1D069286FD06E280DD06F2806D1B5E051
:1048600073282CD0752875D0782874D05A4617999B
:1048700090476D1C75E1C4F30250022809D003284B
:104880000DD0D9F8001004280DD00D6009F10409ED
:1048900067E1D9F80010EA17C1E90052F6E7D9F844
:1048A00000100D80F2E70D70F0E719F8041B8DF889
:1048B000001000208DF80100EA46012003E059F8BD
:1048C00004AB4FF0FF3061074FF0000102D40DE060
:1048D00008F101018846B9420FDA8045F8DB1AF881
:1048E00008100029F4D108E008F10101884681424E
:1048F000FADB1AF808100029F6D105985B46A0EB00
:10490000080721463846179A00F094FA284400EB2D
:10491000080507E04DE029E10DE01AF8010B5A46C1
:1049200017999047B8F10108F7D25B4621463846FF
:10493000179A13E142E00A220092C4F302524FF0A8
:10494000000A022A08D059F804CB032A4FEAEC7176
:104950000AD00DE029E02AE009F1070121F0070261
:10496000F2E802C1914609E00FFA8CFC4FEAEC71C3
:10497000042A03D14FFA8CFC4FEAEC71002907DAC4
:104980000A460021DCF1000C61EB02012D2202E05D
:10499000220504D52B228DF80420012203E0E20732
:1049A00001D02022F7E7904659E00A2102E01022C8
:1049B0000DE010214FF0000A00910BE010224FF0A3
:1049C000000A44F004040827009203E008224FF094
:1049D000000A0092C4F30252022A05D059F804CB0F
:1049E0000021032A08D009E009F1070121F007029C
:1049F000F2E802C1914605E01FFA8CFC042A01D1BD
:104A00000CF0FF0C4FF00008220728D5702806D0C4
:104A1000009B83F0100353EA0A0305D00EE0402206
:104A20008DF80420012208E05CEA010206D0302261
:104A30008DF804208DF8050002229046009B83F03B
:104A4000080353EA0A030AD15CEA010201D16207B2
:104A500005D530228DF804204FF001087F1E58281C
:104A600004D034A003900EA802900DE036A0F9E720
:104A700053466046009AFBF7E7FC84460398825C45
:104A80000298401E029002705CEA0100F0D1029888
:104A900006A9081A00F1200A600702D524F4803420
:104AA00000E00127574502DDA7EB0A0000E00020E7
:104AB00000EB0A01009005984144401A0590E0037C
:104AC00006D45B462146179A059800F0B3F90544D1
:104AD000002706E001A85A46C05D179990476D1C53
:104AE0007F1C4745F6DBE0030CD55B462146179A51
:104AF000059800F09FF9054404E030205A461799C4
:104B000090476D1C0099481E00900029F5DC08E0D4
:104B1000029802995A460078491C029117999047C9
:104B20006D1CBAF10001AAF1010AF1DC65E1000097
:104B30000928010030313233343536373839616273
:104B40006364656600000000303132333435363737
:104B500038394142434445460000000000F058F90E
:104B60000544761C307800287FF4ECAD19B0284657
:104B7000BDE8F08F620700D4062709F1070222F092
:104B8000070CFCE80223E14603F000485FEA080C4A
:104B900002D00FF2702C0DE05FEA045C02D50FF238
:104BA000682C07E05FEAC47C02D00FF2602C01E0C1
:104BB000AFF2700C4FF0FF3823F00043CDF850C037
:104BC00065280CD006DC452809D046281DD047288A
:104BD0003DD13DE0662818D067287ED138E000211D
:104BE000112F01DB112000E0781CCDE9000106A99E
:104BF0000EA8FFF7DDFCDDE90F010E9A03910021FD
:104C0000009207F1010A04914DE04FF00040009737
:104C1000CDE9011006A90EA8FFF7CAFCDDE90F02D5
:104C200003920E9B11990022DDF80CA000930492D0
:104C300011B9791C00EB010AB7EB0A0004D4C0F1EA
:104C4000FF3007F1010A0490AAEB0700019044E04D
:104C5000012F00DA01270021112F01DD112000E0D2
:104C60003846CDE9000106A90EA8FFF7A1FCDDE951
:104C70000F010E9A0391002104910092BA46210778
:104C80000CD40399514500DA8A46BAF1010F05DDCB
:104C9000009AAAF10101515C302908D0B84202DA29
:104CA00010F1040F06DA0121CDE9011015E0AAF197
:104CB0000101E9E7002805DC049901440491AAEB0D
:104CC000000102E0411C514500DD8A460499401A6A
:104CD000401C01904FF000400290200704D401983E
:104CE000504501DBCDF8048000208DF84F0002987C
:104CF0000DF14F07B0F1004F25D02B200E900298F8
:104D00004FF0020800280CDA404202902D200E904D
:104D100007E00A210298FBF7DAFB3031029007F82E
:104D2000011DB8F10001A8F10108F2DC0298002889
:104D3000EFD1791E0E980870307800F0200040F016
:104D4000450007F8020D12A8C01B00F107081498CF
:104D5000007800B1012000EB0A01019801EBE0713D
:104D600005984144401A401E0590E00306D45B4676
:104D70002146179A059800F05DF8054414980078CC
:104D800018B15A46179990476D1CE00324D55B462D
:104D90002146179A059800F04DF805441CE0049848
:104DA000002807DBDDE90301884203DD0098405C51
:104DB000179901E0179930205A469047049805F159
:104DC0000105401C04900198401E019004D12E2042
:104DD0005A46179990476D1CBAF10001AAF1010AD1
:104DE000DDDC05E017F8010B5A46179990476D1C5A
:104DF000B8F10001A8F10108F4DC5B462146179ADE
:104E00000598ABE62D0000002B00000020000000FC
:104E10002DE9F041044600251E461746880404D4B7
:104E200005E039462020B0476D1C641EF9D52846A0
:104E3000BDE8F0812DE9F041044600251E4690466C
:104E4000C80301D5302700E02027880404D505E0F9
:104E500041463846B0476D1C641EF9D52846BDE86A
:104E6000F0810000000000000000010203040607BA
:104E700008090000000001020304656E74657220D9
:104E80006D61696E207468726561640D0A007465F5
:104E900073740D0A006D61696E20746872656164D7
:104EA00000547820417070206D656D6F72792070AC
:104EB0006F6F6C0053797374656D2054696D657202
:104EC0002054687265616400E84E0008000000200C
:104ED0001800000090450008004F0008180000204E
:104EE00000340000A0450008000000000024F40089
:104EF000F0F0F0F0010000001000000000000000E1
:040000050800018965
:00000001FF
